:1000000067C2000081C200007FC200007DC2000004
:100010007BC2000079C2000077C2000075C20000F8
:1000200073C2000071C200000C94BD240C9486259C
:100030006BC2000069C2000067C2000065C2000018
:1000400063C200000C944A125FC200005DC200004F
:100050005BC2000059C2000057C2000055C2000038
:1000600053C2000051C200004FC200004DC2000048
:100070004BC2000049C2000047C2000045C2000058
:1000800043C2000041C200003FC200000C940E15A4
:100090003BC2000039C2000037C2000035C2000078
:1000A00033C2000031C200002FC20000084AD73B13
:1000B0003BCE016E84BCBFFDC12F3D6C74319ABD37
:1000C00056833DDA3D00C77F11BED9E4BB4C3E915B
:1000D0006BAAAABE000000803F05A84CCDB2D44E4A
:1000E000B93836A9020C50B9918688083CA6AAAA4C
:1000F0002ABE000000803F0D0A27242720746F20AD
:1001000064756D702063757272656E7420736574AA
:1001100074696E67730D0A000D0A4772626C2000E5
:100120000D0A00496E76616C696420636F6D6D61C4
:100130006E640D0A004D6F64616C2067726F75709C
:100140002076696F6C6174696F6E0D0A00466C6F82
:100150006174696E6720706F696E74206572726F6A
:10016000720D0A00556E737570706F72746564203D
:1001700073746174656D656E740D0A004578706501
:100180006374656420636F6D6D616E64206C65746B
:100190007465720D0A00426164206E756D6265724D
:1001A00020666F726D61740D0A006572726F723A2B
:1001B00020006F6B0D0A000D0A27242720746F2082
:1001C00064756D702063757272656E7420736574EA
:1001D00074696E67730D0A000D0A4772626C2030F5
:1001E0002E3861005761726E696E673A2046616908
:1001F0006C656420746F20726561642045455052BF
:100200004F4D2073657474696E67732E2055736942
:100210006E672064656661756C74732E0D0A0053F9
:10022000746F726564206E65772073657474696E8F
:10023000670D0A00556E6B6E6F776E20706172618C
:100240006D657465720D0A00537465702070756C6D
:100250007365206D757374206265203E3D203320E8
:100260006D6963726F7365636F6E64730D0A00531B
:10027000746570732F6D6D206D75737420626520C9
:100280003E20302E300D0A000D0A2724783D76617D
:100290006C75652720746F207365742070617261BE
:1002A0006D65746572206F72206A757374202724DF
:1002B0002720746F2064756D702063757272656E8F
:1002C000742073657474696E67730D0A0020286367
:1002D0006F726E6572696E67206A756E6374696F9E
:1002E0006E20646576696174696F6E20696E206D39
:1002F0006D29002028616363656C65726174696FA4
:100300006E20696E206D6D2F7365635E32290D0A54
:100310002439203D2000290D0A2438203D200020CA
:10032000287374657020706F727420696E766572C0
:1003300074206D61736B2E2062696E617279203D4D
:10034000200020286D6D2F617263207365676D65D5
:100350006E74290D0A2437203D200020286D6D2F52
:100360006D696E2064656661756C74207365656B7C
:100370002072617465290D0A2436203D2000202852
:100380006D6D2F6D696E2064656661756C74206695
:100390006565642072617465290D0A2435203D204D
:1003A0000020286D6963726F7365636F6E647320DC
:1003B000737465702070756C7365290D0A24342080
:1003C0003D2000202873746570732F6D6D207A298D
:1003D0000D0A2433203D2000202873746570732F8C
:1003E0006D6D2079290D0A2432203D2000202873CC
:1003F000746570732F6D6D2078290D0A2431203DAE
:1004000020002430203D20001201100102000008CD
:100410004123368001000102DC0109023E00020195
:1004200000C0FA09040000010202010005240010C6
:1004300001042402060524060001070582030800C2
:10044000FF09040100020A00000007050402100071
:10045000050705830210000504030904180344007E
:10046000650061006E002000430061006D006500C2
:100470007200610000001C034C0055004600410062
:1004800020004300440043002000440065006D004C
:100490006F000000494E46494E4954594E414ECDD9
:1004A000CCCC3D0AD7233C17B7D13877CC2B32952B
:1004B00095E6241FB14F0A000020410000C8420009
:1004C000401C4620BCBE4CCA1B0E5AAEC59D7400D3
:1004D00011241FBECFEFDAE0DEBFCDBF11E0A0E0F8
:1004E000B1E0EEE9F1E602C005900D92A633B10746
:1004F000D9F716E0A6E3B1E001C01D92A636B10718
:10050000E1F703D00C94CD307BCD2F923F924F92E8
:100510005F926F927F928F929F92AF92BF92CF9293
:10052000DF92EF92FF920F931F93DF93CF93CDB79C
:10053000DEB72C970FB6F894DEBF0FBECDBF0E947A
:1005400038150E94350FEAE0F6E08AE2DF011D92DD
:100550008A95E9F781E080930A0680910A0688234C
:1005600009F467C060900D0670900E0680900F062B
:1005700090901006209011063090120640901306BD
:1005800050901406A0901506B0901606C09017065D
:10059000D0901806DE011196EAE1F6E08CE00190B9
:1005A0000D928150E1F7EAE0F6E08AE211928A9535
:1005B000E9F70E948F0F0E94F6180E94EC100E942B
:1005C000711C93D40E94160F0E9406220E942515CA
:1005D00060920D0670920E0680920F0690921006A1
:1005E0002092110630921206409213065092140681
:1005F000A0921506B0921606C0921706D092180661
:10060000AAE1B6E0FE0131968CE001900D92815096
:10061000E1F7C401B301A20191018601750184D4FF
:10062000C401B301A20191010E941E21A1E0A09387
:100630000C060E94F9100E94530F8FCF4F925F92C9
:100640006F927F928F92AF92BF92CF92DF92EF9292
:10065000FF920F931F93DF93CF9300D000D0CDB7BD
:10066000DEB769837A838B839C8329013A010E94D8
:10067000F91080910A06882391F40E949F1C882318
:10068000B1F769817A818B819C81A30192010E94DB
:10069000B61C80910C06882311F00E9462150F9001
:1006A0000F900F900F90CF91DF911F910F91FF90BE
:1006B000EF90DF90CF90BF90AF908F907F906F9032
:1006C0005F904F9008952F923F924F925F926F925A
:1006D0007F928F929F92AF92BF92CF92DF92EF92D2
:1006E000FF920F931F93DF93CF93CDB7DEB7C25422
:1006F000D0400FB6F894DEBF0FBECDBF3C017E8F59
:100700006D8F2A01298F302E9E2CAAA2BBA2CCA2CB
:10071000DDA28CA6022F10E0000F111F000F111F89
:100720009A01200F311F3EA72DA7D9018D919D91D0
:100730000D90BC91A02D8D879E87AF87B88BF3015C
:10074000E00FF11FBC01CD01208131814281538135
:100750000E94FA2969AB7AAB8BAB9CABE32CFF24EC
:10076000EE0CFF1CEE0CFF1CF201EE0DFF1DF8ABB2
:10077000EFA7A080B180C280D380F301EE0DFF1DF2
:10078000C601B50120813181428153810E94FA293D
:100790006DAB7EAB8FAB98AF892D90E0880F991F22
:1007A000880F991FF301E80FF91F208131814281E1
:1007B00053812D8B3E8B4F8B588F4D8D5E8D840FCB
:1007C000951FDC016D917D918D919C912D893E89C4
:1007D0004F89588D0E94F929862E772E582E9B8F8F
:1007E0002D853E854F85588950582D873E874F87E8
:1007F000588BD601C501B0588EA39FA3A8A7B9A74F
:10080000ED8DFE8DE00FF11F6081718182819381FA
:10081000B9A9AAA9FBA9ECA92B2F3A2F4F2F5E2F1C
:100820000E94F929A62E672E482E292EED8DFE8DC9
:10083000EE0DFF1D6081718182819381BDA9AEA9FA
:10084000FFA9E8AD2B2F3A2F4F2F5E2F0E94F929D9
:10085000F62E072F182FE92E6D857E858F859889B6
:100860002F2D302F412F5E2D0E94A82D698B7A8B62
:100870008B8B9C8B6EA17FA188A599A52A2D362DE7
:10088000442D522D0E94A82D9B01AC0169897A89C3
:100890008B899C890E94F929698B7A8B8B8B9C8B25
:1008A0006D857E858F8598892A2D362D442D522D74
:1008B0000E94A82D5B016C016EA17FA188A599A55E
:1008C0002F2D302F412F5E2D0E94A82D9B01AC01B2
:1008D000C601B5010E94FA299B01AC0169897A8998
:1008E0008B899C890E946D2AF62E172FE82E092FDE
:1008F00020E030E0A9010E94D32A87FF0EC06F2DAF
:10090000712F8E2D902F2BED3FE049EC50E40E948B
:10091000FA29F62E172FE82E092F6C968FAD6C97BB
:10092000882371F06F2D712F8E2D902F2BED3FE0CE
:1009300049EC50E40E94F929F62E172FE82E092FD2
:100940006F2D712F8E2D902F6B962CAD3DAD4EAD32
:100950005FAD6B970E94A82DEB8D282D372D452D6F
:100960005E2F0E94E32C5B016C0120E030E0A901C6
:100970000E94D32A882309F4F5C1C601B50120914C
:100980004B0630914C0640914D0650914E060E9408
:10099000DA2A0E94B02B0E94472B7BA76AA79CA54E
:1009A0009923A1F080E090E00E94732B9B01AC01A1
:1009B000BAA1ABA1FCA1EDA16B2F7A2F8F2F9E2F97
:1009C0000E94A82D6AA37BA38CA39DA3EAA5FBA5E7
:1009D000BF0180E090E00E94732B5B016C016F2DE2
:1009E000712F8E2D902FA60195010E94DA2A698B16
:1009F0007F8F88A399A32B8D682D772D852D922F1E
:100A0000A60195010E94DA2A6FAF21967FAF219748
:100A100022968FAF229723969FAF239759894F8DA8
:100A200038A129A1652F742F832F922F20E030E069
:100A300040E05FE30E94A82DB989AF8DF8A1E9A13C
:100A40002B2F3A2F4F2F5E2F0E94A82D9B01AC0118
:100A500060E070E080E89FE30E94F92969AF7AAF17
:100A60008BAF9CAFE92DF0E0EE0FFF1FEE0FFF1FE5
:100A7000CE010196E80FF91F2D893E894F89588DC7
:100A80002083318342835383662441E050E05C8FAE
:100A90004B8FB98DAB2FB0E0AA0FBB1FAA0FBB1FA6
:100AA000A80FB91FBE8BAD8B232D30E0220F331F53
:100AB000220F331F280F391F3A8F298FFEAFEDAF5A
:100AC0002EA03FA048A459A42AC1362D39310CF0DC
:100AD0005BC06D857E858F859889B989AF8DF8A1BA
:100AE000E9A12B2F3A2F4F2F5E2F0E94A82D7B01BB
:100AF0008C01C201B101B9ADAAADFBADECAD2B2F9C
:100B00003A2F4F2F5E2F0E94A82D9B01AC01C801E8
:100B1000B7010E94FA29D62EA72E982E892E6D8510
:100B20007E858F859889B9ADAAADFBADECAD2B2F35
:100B30003A2F4F2F5E2F0E94A82D8B01F82EE92E01
:100B4000C201B101B989AF8DF8A1E9A12B2F3A2FCC
:100B50004F2F5E2F0E94A82D9B01AC01F701602F43
:100B6000712F8F2F9E2F0E94F929262F372F482F64
:100B7000592F2D873E874F87588B6394C4012D2CA6
:100B80003A2C492E582E6AC04B8D5C8DBA0180E0FC
:100B900090E00E94732BB989AF8DF8A1E9A12B2FAA
:100BA0003A2F4F2F5E2F0E94A82D7B018C017F2DA5
:100BB000912F0E94D72A1B012C016E2D7F2D802F93
:100BC000912F0E942B2E5B016C01ADA5BEA5ED906F
:100BD000FD900D911C9117FB109517F91095EFA53D
:100BE000F8A96080718082809380C801B701A2015A
:100BF00091010E94A82D6D877E878F87988BC401F5
:100C0000B301A60195010E94A82D9B01AC016D8541
:100C10007E858F8598890E94FA29262F372F482FA5
:100C2000592F2D873E874F87588BC801B701A601E2
:100C300095010E94A82D7B018C01C401B301A20182
:100C400091010E94A82D9B01AC01C801B7010E942F
:100C5000F929262E372E482E592E662459A94AA93D
:100C60003BA92CA9652F742F832F922F2D853E85AC
:100C70004F8558890E94FA29AD89BE896D937D936D
:100C80008D939C9313975DA94EA93FA928AD652F1D
:100C9000742F832F922FA20191010E94FA29E98DCE
:100CA000FA8D6083718382839383ADADBEAD6D9108
:100CB0007D918D919C91BFAD2196AFAD21972296EC
:100CC000FFAD22972396EFAD23972B2F3A2F4F2F6F
:100CD0005E2F0E94FA29EDADFEAD608371838283A1
:100CE000938369817A818B819C812D813E814F81A3
:100CF0005885E984FA840B851C85EAA1FBA1ACA187
:100D0000BDA15F016D018CA499DC80910A06882346
:100D100049F52B8D3C8D2F5F3F4F3C8F2B8F4B8D9B
:100D20005C8D8AA59BA54817590708F4CECEAD8DDA
:100D3000BE8D6D917D918D919C91139714962D91FF
:100D40003D914D915C9117971896ED90FD900D9106
:100D50001C911B97EAA1FBA1ACA1BDA15F016D0194
:100D60008CA46CDCCE5BDF4F0FB6F894DEBF0FBEF9
:100D7000CDBFCF91DF911F910F91FF90EF90DF904A
:100D8000CF90BF90AF909F908F907F906F905F902B
:100D90004F903F902F900895EF92FF920F931F93E3
:100DA000CF93DF937B018C0120E030E040EA51E4F7
:100DB0000E94A82D0E94B02B0E94472BEB010E949D
:100DC000A71CC801B70120E030E04AE754E40E94C4
:100DD000A82D7B018C0182E390E0C89FB001C99FE0
:100DE000700DD89F700D112480E090E00E94732B4D
:100DF0009B01AC01C801B7010E94F9290E94B02BE8
:100E00000E94472BDC01CB010E94CE2110C00E9422
:100E1000F910219780910A06882359F48FEF90E703
:100E2000A2E081509040A040E1F700C00000209770
:100E300071F7DF91CF911F910F91FF90EF9008957F
:100E4000EF92FF920F931F930E94092260E070E0DF
:100E5000CB0120E030E0A901EE24FF2487010E94AD
:100E60001E211F910F91FF90EF90089580935401E0
:100E70006093550140935601089520913901222332
:100E800031F023E333E34BEC51E40C94A82D0895A7
:100E90000F931F93CF93DF938C01FB01CA01E901EC
:100EA0002881420F511DDA012C91222399F0D8019B
:100EB0002C9321542A3110F082E00AC028812F5F40
:100EC0002883BE01AF010E949321009731F481E095
:100ED0008093360120E030E002C021E030E0C9011B
:100EE000DF91CF911F910F91089581E2E6E3F1E048
:100EF000DF011D928A95E9F78091420690914306A1
:100F0000A0914406B091450680933D0190933E0127
:100F1000A0933F01B093400180E061E042E0A6DF92
:100F200081E080933A010895AF92BF92CF92DF9211
:100F3000EF92FF920F931F9359016A010E94752B44
:100F4000209134063091350640913606509137068F
:100F50000E94DA2A6093450170934601809347010D
:100F600090934801C601B5010E94752B2091380667
:100F70003091390640913A0650913B060E94DA2A98
:100F80006093490170934A0180934B0190934C0107
:100F9000C801B7010E94752B20913C0630913D0697
:100FA00040913E0650913F060E94DA2A60934D011F
:100FB00070934E0180934F01909350011F910F91B8
:100FC000FF90EF90DF90CF90BF90AF9008952F9259
:100FD0003F924F925F926F927F928F929F92AF92C9
:100FE000BF92CF92DF92EF92FF920F931F93DF9306
:100FF000CF93CDB7DEB7AC970FB6F894DEBF0FBE78
:10100000CDBF9BA78AA719828CE0FE013796DF012E
:10101000282F1D922A95E9F7FE017396DF011D9294
:101020008A95E9F71092360100E019A618A21F8EE2
:1010300022E0422E512C4C0E5D1E93E0292E312CC5
:101040002C0E3D1E4E010894811C911C81E0682EDF
:10105000712C13E0E12EFF24F3947CC1AB80BC80A3
:10106000CD80DE80C601B5010E94762E0E94422B03
:101070008A81873421F08D3409F06CC111C16E3141
:101080007105C1F16F317105D4F46431710584F4D7
:10109000613171059CF56430710561F16530710550
:1010A0001CF477FF29C034C06A30710589F522C06D
:1010B000663171054CF16C31710551F51BC06C3511
:1010C00071058CF46A357105DCF46C3371053CF400
:1010D00066337105DCF465337105D1F40BC06035FE
:1010E0007105B1F409C06C35710521F06F357105DA
:1010F0007CF408C011E00DC012E00BC013E009C081
:1011000014E007C016E005C017E003C019E001C0F5
:1011100010E06531710509F48CC066317105ACF5DC
:101120006430710509F466C065307105ACF4613056
:10113000710509F464C0623071052CF46115710504
:1011400009F45AC0E9C06230710509F45BC063302C
:10115000710509F0E1C05AC06231710509F45DC042
:10116000633171054CF46A30710509F4D8C06131FE
:10117000710509F0D1C04DC06331710509F451C04A
:101180006431710509F0C8C051C06035710509F4BA
:101190005FC061357105ACF46533710509F44EC06B
:1011A000663371054CF46C31710509F445C06E313C
:1011B000710509F0B1C040C06C3371050CF0ACC0D2
:1011C00040C06C35710509F44DC06D3571054CF4A6
:1011D0006A35710509F440C06B35710509F09CC092
:1011E0003EC06D35710509F455C06E35710509F0C5
:1011F00093C053C001E096C01092370193C0F092A3
:10120000370190C082E0809337018CC0E0923701B3
:1012100089C080E061E042E007C080E062E041E038
:1012200003C081E062E040E021DE7CC0F092390141
:1012300079C01092390176C003E074C0B1E0B9A75B
:1012400071C06633710509F067C0109219066AC053
:10125000E4E0E093370166C0F0923A0163C0109277
:101260003A0160C0C601B50120E030E040E251E43F
:101270000E94A82D0E94762E0E94422BF3E068392E
:101280007F0731F023E06939720709F045C049C092
:1012900004E048C0F092380145C01092380142C0C5
:1012A0006630710534F46330710544F477FF04C08F
:1012B00007C06E31710521F415E003C018E001C0CC
:1012C00010E063307105F1F06430710554F4613061
:1012D000710589F0623071058CF46115710559F062
:1012E0001BC065307105A9F06530710574F06E3171
:1012F000710591F403C0F0923B0114C082E0809329
:101300003B0110C0F0923C010DC03FEF30933C0117
:1013100009C010923C0106C0E092360103C002E011
:1013200001C005E01123B1F0930102C0220F331F69
:101330001A95E2F78F8D98A182239323009721F0CD
:1013400045E04093360106C06F8D78A1622B732B68
:1013500078A36F8FC201B1014AA55BA5940198DD06
:10136000009709F07BCE80913601882309F042C5B1
:101370001982EE2480E090E0DC0189A39AA3ABA35C
:10138000BCA35C016D011DA21EA290E89FA3AFEB60
:10139000A8A7FF24B2E02B2E312C2C0E3D1E2E01CF
:1013A0000894411C511C16E0802F0F2D3501460179
:1013B000F82ECFC02A81223509F471C0233580F47C
:1013C0002C3438F4293408F045C0263409F0C1C063
:1013D0001AC02C3409F454C0203509F0BAC05AC0E0
:1013E000283509F496C0293538F4233509F461C04D
:1013F000243509F0AEC075C0293509F495C02A35E9
:1014000009F0A7C09CC0AB80BC80CD80DE80C60147
:10141000B50120E030E0A9010E94D32A181614F08B
:101420001093360180913801882341F0C601B5013F
:1014300024DD6DA37EA38FA398A78BC0C601B50141
:101440001CDD60933D0170933E0180933F019093BA
:1014500040017FC06B817C818D819E812CA70DDD39
:101460002CA5E22FF0E0E954F040EE0FFF1FEE0F45
:10147000FF1FE40DF51D628B738B848B958B69C008
:101480006B817C818D819E810E94762E0E94472BEC
:10149000E62E5FC06B807C808D809E805AC06B8101
:1014A0007C818D819E81E9DC69A37AA38BA39CA3B7
:1014B00050C0AB80BC80CD80DE80C601B50120E08D
:1014C00030E0A9010E94D32A87FF02C010933601A1
:1014D000C601B5010E94422B7093530160935201E3
:1014E00038C0AB80BC80CD80DE80C601B50120E075
:1014F00030E0A9010E94D32A87FF02C01093360171
:10150000C601B5010E94762E0E94472B60935101BF
:1015100020C06B817C818D819E81AFDC6F83788759
:1015200089879A87016015C06B817C818D819E813E
:10153000A4DC6B877C878D879E8702600AC06B81E5
:101540007C818D819E8199DC6F87788B898B9A8BCA
:101550000460C101BE016D5F7F4F4AA55BA592018A
:1015600097DC009709F026CF8F2DF02E082F809161
:101570003601882309F03EC480913C01409152011C
:1015800050915301662757FD6095762F992787FD67
:10159000909553D4033009F454C0043030F4013032
:1015A00059F0023009F04BC114C0043009F4E6C010
:1015B000053009F044C13CC1C401B30120E030E072
:1015C000A9010E94D32A87FDDBC0C401B301E4DB7B
:1015D00036C1C401B3010E94762EBE2DB23029F46B
:1015E0000E94422B6130710521F083E08093360127
:1015F0001DC1FF2009F4C4C0AE01495F5F4FEAE19D
:10160000F6E020E030E06F2D70E0CB01022E02C04A
:10161000959587950A94E2F780FF0AC0DA01ED906C
:10162000FD900D911C911397E082F1820283138348
:101630002F5F3F4F4C5F5F4F34962330310529F7C2
:10164000F5C0FF2009F491C050903A01F7E0CF2E89
:10165000D12CCC0EDD1EE5E4AE2EE1E0BE2E809155
:10166000190690E08C01000F111F080F191F000FC1
:10167000111F000F111F065E194F56E2652E56E02E
:10168000752E88249924EF2CFF24C7017801860148
:101690006C01C601082C02C0959587950A94E2F763
:1016A00080FF30C05520E1F0F701608171818281B7
:1016B0009381D3012D913D914D915C910E94FA2926
:1016C0009B01AC01F80160817181828193810E944C
:1016D000FA29D8016D937D938D939C9313971CC029
:1016E000F8016081718182819381D5012D913D91B5
:1016F0004D915C910E94FA29F80160837183828385
:1017000093830AC0F50180819181A281B381F801A0
:1017100080839183A283B3830894811C911C0C5F06
:101720001F4F24E030E0A20EB31EE20EF31E620E45
:10173000731E33E08316910409F0ABCF6F81788577
:1017400089859A852B853C854D855E85EF84F88853
:1017500009891A89A0904606B0904706C0904806AD
:10176000D090490688240E941E036ADB8CE0E5E4E1
:10177000F1E0DF011D928A95E9F758C0FF2021F4BE
:1017800086E0809336015BC045E4A42E41E0B42E90
:101790008091190690E08C01000F111F080F191F8E
:1017A000000F111F000F111F065E194F97E0892EC1
:1017B000912C8C0E9D1E86E2682E86E0782ECC241D
:1017C000DD24EF2CFF24C7010C2C02C095958795D2
:1017D0000A94E2F780FF19C0F5016081718182816E
:1017E0009381D8012D913D914D915C910E94F929F1
:1017F000F40120813181428153810E94F929D30172
:101800006D937D938D939C9313970894C11CD11C69
:10181000E4E0F0E0AE0EBF1E0C5F1F4F8E0E9F1E69
:101820006E0E7F1EF3E0CF16D10469F6FF2407C0C9
:101830008CE0E6E2F6E0DF011D928A95E9F7BF8DC4
:10184000B2FD03C0FF2009F4C1C280913801882392
:10185000B1F05DA14EA13FA128A5652F742F832F64
:10186000922F20E030E0A9010E94D32A87FF07C011
:1018700080913701843019F086E080933601E9A524
:10188000EE2339F080913701823018F086E08093A2
:10189000360180913601882309F0ACC2E0903A010C
:1018A000B7E0CB2ED12CCC0EDD1E8091190690E036
:1018B0008C01000F111F080F191F000F111F000FBF
:1018C000111F065E194FE6E26E2EE6E07E2E75E4ED
:1018D000A72E71E0B72E882499244F2C55242E2D45
:1018E000C8018601CF2C7C01D22EC201082C02C077
:1018F000959587950A94E2F780FF33C0F9A5FF23F9
:10190000D1F5DD20D9F0D7016D917D918D919C911C
:10191000F30120813181428153810E94FA299B0188
:10192000AC01D8016D917D918D919C910E94FA2915
:10193000F80160837183828393831DC0D8016D9108
:101940007D918D919C91F50120813181428153815E
:101950000E94FA29D8016D937D938D939C931397E0
:101960000AC0F50180819181A281B381F801808351
:101970009183A283B3830894811C911C0C5F1F4F39
:1019800024E030E0E20EF31E620E731EA20EB31EC0
:1019900033E08316910409F0A8CFFC2CC0903701E6
:1019A0004C2D443048F4423008F04FC0CC2061F058
:1019B000413009F0FEC121C05C2D543009F0F9C15D
:1019C000FF2009F4F6C188C0FF2009F485C06F81AB
:1019D000788589859A852B853C854D855E85EF8444
:1019E000F88809891A89A0904606B0904706C090E9
:1019F0004806D0904906882425C0FF2009F46CC011
:101A00006F81788589859A852B853C854D855E8596
:101A1000EF84F88809891A8980903801882061F458
:101A2000A0913D01ADA3B0913E01BEA3E0913F0165
:101A3000EFA3F0914001F8A7EDA1FEA1AFA1B8A5D9
:101A40005F016D010E941E03B4C12091560129A7B8
:101A500081E090E002C0880F991F2A95E2F78095F7
:101A60008F21D1F169A17AA18BA19CA120E030E066
:101A7000A9010E94D32A882399F5E0915401F0E04E
:101A8000EE0FFF1FEE0FFF1F8E010F5F1F4FE00FC6
:101A9000F11F82889388A488B588C501B40120E02D
:101AA00030E0A9010E94D32A882309F02BC1E091DC
:101AB0005501F0E0EE0FFF1FEE0FFF1FE00FF11FCB
:101AC000628973898489958920E030E0A9010E94A8
:101AD000D32A882309F016C186E08093360169C1B4
:101AE000A0905401BB24F501EE0FFF1FEE0FFF1F66
:101AF0008E010F5F1F4FD801AE0FBF1FEA5CFE4F74
:101B000016966D917D918D919C91199727853089BD
:101B1000418952890E94F929862E672E482ED92E96
:101B200080915501482F50E05BA74AA7FA01EE0FBC
:101B3000FF1FEE0FFF1FD801AE0FBF1FEA5CFE4F65
:101B400016966D917D918D919C911997278530897D
:101B5000418952890E94F929962E772E582E9F8FFF
:101B60008CE0FE017396DF011D928A95E9F769A169
:101B70007AA18BA19CA120E030E040E850E40E94D3
:101B8000A82D29A13AA14BA15CA10E94A82D7B01FF
:101B90008C01682D762D842D9D2D282D362D442DDC
:101BA0005D2D0E94A82D9B01AC01C801B7010E94C8
:101BB000F9297B018C012F8D692D772D852D922F91
:101BC000292D372D452D592F0E94A82D9B01AC01A1
:101BD000C801B7010E94F9290E94352E7B018C01B2
:101BE000682D762D842D9D2DEF8D292D372D452D9A
:101BF0005E2F0E94E32C9B01AC01C801B7019058F5
:101C00000E94DA2AB62FA72FF82FE92FE62EF72EFB
:101C1000082F192F2B2F3A2F4F2F5E2F0E947D2E2A
:101C2000882321F084E080933601E4C0BC2DB330DA
:101C300021F417FB109517F9109569A17AA18BA1D2
:101C40009CA120E030E0A9010E94D32A87FF0DC0AB
:101C500017FB109517F9109529A13AA14BA15CA18A
:101C6000505829A33AA34BA35CA3AA0CBB1CAA0CF3
:101C7000BB1C1E010894211C311CA20CB31C2F8D0F
:101C8000692D772D852D922FA80197010E94A82DEF
:101C90009B01AC01682D762D842D9D2D0E94F92984
:101CA00020E030E040E05FE30E94A82DD50152968D
:101CB0006D937D938D939C935597AAA4BBA4AA0C76
:101CC000BB1CAA0CBB1CA20CB31C682D762D842D4A
:101CD0009D2DA80197010E94A82D9B01AC01EF8DBD
:101CE000692D772D852D9E2F0E94FA2920E030E066
:101CF00040E05FE30E94A82DF501628B738B848B1B
:101D0000958B15C0E0915501F0E0EE0FFF1FEE0F2F
:101D1000FF1FEC0FFD1F2389348945895689C501B2
:101D2000B4010E94E32C69A37AA38BA39CA381E056
:101D3000FC2DF23009F080E0209154010091550112
:101D400080903801882061F430913D013DA340919D
:101D50003E014EA350913F015FA36091400168A7EF
:101D600000D000D00F9249A15AA16BA17CA1ADB7C0
:101D7000BEB711964D935D936D937C931497159612
:101D80008C9385E491E0BE01695F7F4FAE014D5EAB
:101D90005F4FE9A4ADA1FEA1EFA138A5AA2EBF2EE9
:101DA000CE2ED32E0E9463030F900F900F900F90B2
:101DB0000F90809136018823E9F4A5E4B1E0FE019B
:101DC00037968CE001900D928150E1F780913B01B4
:101DD000882371F00E94A71C10920C0680913B0191
:101DE000823021F481E080930A0602C010923B0108
:101DF00080913601AC960FB6F894DEBF0FBECDBF12
:101E0000CF91DF911F910F91FF90EF90DF90CF90D6
:101E1000BF90AF909F908F907F906F905F904F900A
:101E20003F902F9008958BB18BB908951092570170
:101E30008AB18AB98AB18AB9F6CFCF93DF93EC0120
:101E40008091570190E0C817D90761F00E94A71C44
:101E5000209729F08BB18BB98BB18BB901C0E3DF2F
:101E6000C0935701DF91CF91089584B7877F84BFD6
:101E700088E10FB6F89480936000109260000FBE66
:101E800090E080E80FB6F894809361009093610031
:101E90000FBE0E94A02485E091E06AE571E00E94F7
:101EA000E52978940895CF93DF9380915801882392
:101EB00091F090915901992371F488E191E060E0EB
:101EC00071E00E94912287EF90E00E94912281E0D0
:101ED0008093590108C090915901992321F08823DA
:101EE00011F41092590185E091E00E946929EC01FA
:101EF00006C085E091E00E949E29D9D121972097C4
:101F0000C1F785E091E00E9451290E94F127DF91FD
:101F1000CF91089590E06AE571E00C94673085E018
:101F200091E00C941C2985E091E00C94BB2885E09D
:101F300091E00C940D28FC0180899189817090704A
:101F4000809358010895CF93DF93EC01873091057A
:101F5000E9F1009719F482EB91E036C08AEA91E04A
:101F60000E949122C330D105D1F0C430D1053CF498
:101F7000C130D10571F0C230D105E9F40DC0C530D2
:101F8000D10599F0C530D1056CF0C630D10599F472
:101F90000FC086E991E018C08CE791E015C084E697
:101FA00091E012C08DE491E00FC085E391E00CC098
:101FB00083E291E009C0BE01882777FD8095982FC4
:101FC0000E94D32280E291E00E949122DF91CF9182
:101FD00008954F925F926F927F928F929F92AF92ED
:101FE000BF92CF92DF92EF92FF920F931F93CF9306
:101FF000DF93C0900D06D0900E06E0900F06F09093
:1020000010068090110690901206A0901306B090D2
:1020100014064090150650901606609017067090B2
:10202000180680E291E00E947D22C701B6010E945D
:10203000752B6B017C01209134063091350640915F
:102040003606509137060E94DA2A0E94EE2207E2F5
:1020500011E0C8010E947D22C501B4010E94752BC8
:102060004B015C01209138063091390640913A06C7
:1020700050913B060E94DA2A0E94EE22C8010E947B
:102080007D22C301B2010E94752B2B013C012091DE
:102090003C0630913D0640913E0650913F060E941D
:1020A000DA2A0E94EE2289E291E00E947D22C70195
:1020B000B601209134063091350640913606509194
:1020C00037060E94DA2A2091190630E0CAE0D6E0ED
:1020D000F901EE0FFF1FE20FF31FEE0FFF1FEE0FD0
:1020E000FF1FEC0FFD1F20893189428953890E940F
:1020F000F9292C8D3D8D4E8D5F8D0E94F9290E940E
:10210000EE22C8010E947D22C501B401209138064B
:102110003091390640913A0650913B060E94DA2AE6
:102120002091190630E0F901EE0FFF1FE20FF31FB7
:10213000EE0FFF1FEE0FFF1FEC0FFD1F24893589E7
:10214000468957890E94F92928A139A14AA15BA192
:102150000E94F9290E94EE22C8010E947D22C3013B
:10216000B20120913C0630913D0640913E065091CF
:102170003F060E94DA2A2091190630E0F901EE0F9D
:10218000FF1FE20FF31FEE0FFF1FEE0FFF1FEC0FFD
:10219000FD1F208D318D428D538D0E94F9292CA178
:1021A0003DA14EA15FA10E94F9290E94EE2282E387
:1021B00091E00E947D22DF91CF911F910F91FF90BE
:1021C000EF90DF90CF90BF90AF909F908F907F90D7
:1021D0006F905F904F90089588ED91E00E9491225A
:1021E00087EB91E00E9491221092680110929B016E
:1021F00008951F9380913306882359F11091330677
:1022000014FF04C081E080930A0623C010FF06C0BB
:10221000E0DE809133068E7F8093330613FF06C085
:102220006ED480913306877F8093330612FF06C0F9
:1022300074D4809133068B7F8093330611FF09C0DD
:1022400041D481E080930C06809133068D7F80938A
:1022500033061F910895FC012081243261F025325C
:1022600028F42831A9F0213201F50EC02F3321F0D6
:102270002E37D9F405C05BC780913306816011C049
:102280008091330682600DC080913306886009C05A
:102290008091330684FD02C0EDD0C5DD8091330608
:1022A00080618093330687E008950C94E7078A30B5
:1022B00011F08D30C9F49DDF80910A06882309F062
:1022C0003FC0E0916801EE2349F0F0E0E759FE4F8E
:1022D000108289E691E0BFDF90E002C080E090E0EC
:1022E00032DE1092680106C090919B01992329F07B
:1022F000893231F510929B010895813208F18F32B5
:10230000F9F0883221F481E080939B010895909147
:1023100068019133A8F4482F4156292F30E09F5F80
:102320004A3140F427593E4F8052F90180839093FF
:102330006801089527593E4FF90180839093680101
:1023400008958091B2019091B301A091B401B09130
:10235000B5012091B6013091B7014091B80150917B
:10236000B901820F931FA41FB51F8093B6019093EC
:10237000B701A093B801B093B901813022EE920762
:1023800024E0A20720E0B20770F08050924EA440F3
:10239000B0408093B6019093B701A093B801B09379
:1023A000B90181E0089580E008959B01AC012032DD
:1023B00083E0380780E0480780E0580720F420E2F7
:1023C00033E040E050E060E070E788E399E30E948A
:1023D000B82E203080E0380781E0480780E05807B9
:1023E00030F4C901A0E0B0E040E050E02FC0203060
:1023F00080E0380788E0480780E05807A0F4E3E071
:102400005695479537952795EA95D1F7C901A0E0EC
:10241000B0E073E0880F991FAA1FBB1F7A95D1F710
:1024200041E050E013C066E05695479537952795F3
:102430006A95D1F7C901A0E0B0E046E0880F991F86
:10244000AA1FBB1F4A95D1F742E050E0609181007E
:102450004F5F687F462B4093810030938900209323
:1024600088008093B2019093B301A093B401B0931C
:10247000B5010895EFE6F0E080818D7F80838FE7DE
:1024800098E3A1E081509040A040E1F700C0000037
:10249000589A08951F920F920FB60F921124EF923F
:1024A000FF920F931F932F933F934F935F936F93DD
:1024B0007F938F939F93AF93BF93CF93DF93EF93CC
:1024C000FF938091C401882309F091C295B12091B6
:1024D000C201822F807A9F75892B85B985B18F7A49
:1024E000822B85B98091C30190E0909395008093F1
:1024F000940082E08093910081E08093C4017894FD
:1025000080919C0190919D01009709F071C00E94FB
:10251000861CEC0190939D0180939C01009709F427
:102520005FC080910B068823C9F46BA17CA18DA1AB
:102530009EA16093BA017093BB018093BC019093FC
:10254000BD0133DF80E091E7A2E0B0E08093B60107
:102550009093B701A093B801B093B9012BA53CA506
:102560004DA55EA5DA01C901B595A7959795879503
:10257000820F931FA41FB51F8093BE019093BF01CC
:10258000A093C001B093C1012D853E854F85588928
:10259000DA01C901B595A79597958795B095A0954E
:1025A000909581959F4FAF4FBF4FEEE9F1E080933B
:1025B0009E0190939F01A093A001B093A1018483F9
:1025C0009583A683B78380879187A287B387248763
:1025D000358746875787108A118A128A138A08C05E
:1025E00049DF10923206809133068460809333066F
:1025F000C0919C01D0919D01209709F4EFC16881A1
:102600006093C20180919E0190919F01A091A001D1
:10261000B091A10129813A814B815C81820F931F86
:10262000A41FB51F80939E0190939F01A093A001CA
:10263000B093A101181619061A061B0684F56064EA
:102640006093C2012091AA013091AB014091AC018D
:102650005091AD01821B930BA40BB50B80939E018F
:1026600090939F01A093A001B093A10180910D06CA
:1026700090910E06A0910F06B091100667FF04C05E
:102680000197A109B10903C00196A11DB11D809355
:102690000D0690930E06A0930F06B093100680913E
:1026A000A2019091A301A091A401B091A5012D8157
:1026B0003E814F815885820F931FA41FB51F8093C1
:1026C000A2019093A301A093A401B093A5011816B1
:1026D00019061A061B0694F56091C20160616093A9
:1026E000C2012091AA013091AB014091AC015091FF
:1026F000AD01821B930BA40BB50B8093A2019093A9
:10270000A301A093A401B093A5018091110690911B
:102710001206A0911306B091140665FF04C001973C
:10272000A109B10903C00196A11DB11D8093110635
:1027300090931206A0931306B09314068091A601FD
:102740009091A701A091A801B091A90129853A858E
:102750004B855C85820F931FA41FB51F8093A60134
:102760009093A701A093A801B093A9011816190688
:102770001A061B063CF52091AA013091AB0140914D
:10278000AC015091AD01821B930BA40BB50B809350
:10279000A6019093A701A093A801B093A9018091ED
:1027A000150690911606A0911706B091180601968D
:1027B000A11DB11D8093150690931606A0931706D0
:1027C000B09318068091AE019091AF01A091B00135
:1027D000B091B1010196A11DB11D8093AE019093FE
:1027E000AF01A093B001B093B1012D853E854F8517
:1027F000588982179307A407B50708F0EAC020910B
:102800000B06222339F19DDD882309F4E7C02091CE
:10281000BA013091BB014091BC015091BD018BA523
:102820009CA5ADA5BEA582179307A407B50748F0E0
:1028300021DE109232068091330684608093330645
:10284000CDC079018A01E81AF90A0A0B1B0BC801ED
:10285000B701B6C02FA538A949A95AA9821793076D
:10286000A407B507B8F56DDD882309F4B7C08BA5BB
:102870009CA5ADA5BEA52091BA013091BB014091A8
:10288000BC015091BD01820F931FA41FB51F8093FF
:10289000BA019093BB01A093BC01B093BD012FA9D5
:1028A00038AD49AD5AAD82179307A407B50740F07C
:1028B0002093BA013093BB014093BC015093BD01FA
:1028C0006091BA017091BB018091BC019091BD01F2
:1028D0006CDD84C02BA93CA94DA95EA98217930782
:1028E000A407B50708F45BC082179307A407B507D0
:1028F00069F480E091E7A2E0B0E08093B6019093A4
:10290000B701A093B801B093B90168C01ADD88235C
:1029100009F464C08091BA019091BB01A091BC01FF
:10292000B091BD012091BE013091BF014091C00125
:102930005091C101281739074A075B0748F42BA5B6
:102940003CA54DA55EA5821B930BA40BB50B04C043
:10295000B695A795979587958093BA019093BB01FB
:10296000A093BC01B093BD018FA198A5A9A5BAA55C
:102970002091BA013091BB014091BC015091BD0141
:10298000281739074A075B0708F09ACF8093BA01E6
:102990009093BB01A093BC01B093BD0191CF6FA9EF
:1029A00078AD89AD9AAD2091BA013091BB014091CB
:1029B000BC015091BD01261737074807590771F030
:1029C0006093BA017093BB018093BC019093BD01E9
:1029D0007FCF10929D0110929C018CD78091C201F3
:1029E00090914A0689278093C2011092C401FF91F9
:1029F000EF91DF91CF91BF91AF919F918F917F9197
:102A00006F915F914F913F912F911F910F91FF9087
:102A1000EF900F900FBE0F901F9018951F920F927E
:102A20000FB60F9211248F939F9395B180914A0610
:102A300080759F7A892B85B9109291009F918F9113
:102A40000F900FBE0F901F90189584E2EEE9F1E011
:102A5000DF011D928A95E9F760E273E080E090E083
:102A6000A4DC10929D0110929C011092C401089563
:102A700084B1806F84B985B18F7090914A06892B9B
:102A800085B9509AE1E8F0E080818F7E8083808173
:102A900088608083E0E8F0E080818D7F80838081A2
:102AA0008E7F808380818F73808380818F7C808301
:102AB0001092900010929100E1E7F0E08081816037
:102AC0008083D8CC809132068823C1F480910B0694
:102AD0008823A1F481E08093320680914A06809396
:102AE000C20180914106880F845081958093C30173
:102AF000589880916F00826080936F000895809154
:102B00000B06882349F480913206882329F010921D
:102B10000C0681E080930B060895E0919C01F091F2
:102B20009D01309791F16585768587859089209103
:102B3000AE013091AF014091B0015091B101621BE3
:102B4000730B840B950B0E943F211092BA011092D7
:102B5000BB011092BC011092BD0160E070E0CB019E
:102B600024DC80E091E7A2E0B0E08093B60190938E
:102B7000B701A093B801B093B9011092AE011092C1
:102B8000AF011092B0011092B10110920B0608959E
:102B9000F999FECF92BD81BD81E08FBB80B50895CC
:102BA000F894F999FECF92BD81BD81E08FBB80B5CD
:102BB0008627982F962339F06F3F19F060BD84E087
:102BC00006C084E104C0882321F060BD84E28FBB8D
:102BD000F99A789408958F929F92AF92BF92CF9274
:102BE000DF92EF92FF920F931F93DF93CF930F9299
:102BF000CDB7DEB75C016B017A014A0120E01AC053
:102C0000222341F4332727FD30952227330F221F3B
:102C1000332702C021E030E0F60161916F01260FF9
:102C20008C010F5F1F4F2983BBDF08948108910837
:102C3000C80129818114910419F7C7018A0D9B1DD0
:102C4000622FAEDF0F90CF91DF911F910F91FF9018
:102C5000EF90DF90CF90BF90AF909F908F900895AE
:102C60009F92AF92BF92CF92DF92EF92FF920F931B
:102C70001F93CF93DF936C01EB017A018A01CB01A3
:102C800099241AC05C010894A11CB11C81DF992011
:102C900049F4292D332727FD30952227330F221F92
:102CA000332702C021E030E0982E920EF601819386
:102CB0006F0101501040C5010115110519F7C70139
:102CC0008C0F9D1F65DF21E030E0981611F020E0A9
:102CD00030E0C901DF91CF911F910F91FF90EF90EC
:102CE000DF90CF90BF90AF909F90089584EF99EFC1
:102CF000ACE3B4E48093340690933506A093360693
:102D0000B09337068093380690933906A0933A061D
:102D1000B0933B0680933C0690933D06A0933E06FD
:102D2000B0933F068EE18093410680E090E0AAEFE9
:102D3000B3E48093420690934306A0934406B09375
:102D400045068093460690934706A0934806B093A5
:102D5000490680E098ECAFE2B8E480934F06909388
:102D60005006A0935106B09352068DEC9CECACEC4F
:102D7000BDE380934B0690934C06A0934D06B09311
:102D80004E0680E580934A068DEC9CECACE4BDE3F6
:102D90008093530690935406A0935506B09356061D
:102DA000089582E094E00E9491226091340670912F
:102DB000350680913606909137060E94EE228DEE00
:102DC00093E00E94912260913806709139068091BB
:102DD0003A0690913B060E94EE2288ED93E00E9415
:102DE000912260913C0670913D0680913E06909143
:102DF0003F060E94EE2283EC93E00E9491226091B4
:102E0000410670E080E090E00E94D32281EA93E0E6
:102E10000E9491226091420670914306809144067F
:102E2000909145060E94EE228EE793E00E94912247
:102E30006091460670914706809148069091490638
:102E40000E94EE228BE593E00E94912260914B0656
:102E500070914C0680914D0690914E060E94EE2294
:102E600082E493E00E94912260914A0670E080E043
:102E700090E00E94D3228FE193E00E949122809102
:102E80004A060E949F2286E193E00E94912260916F
:102E90004F0670915006809151069091520620E0A5
:102EA00030E041E655E40E94DA2A0E94EE2283EFE8
:102EB00092E00E9491226091530670915406809195
:102EC0005506909156060E94EE228DEC92E00E94EB
:102ED000912288E892E00C94912280E090E064E0F6
:102EE0005FDE81E090E064E376E043E250E073CEA1
:102EF0001F9380E090E04CDE182F843069F484E367
:102F000096E061E070E043E250E0AADE21E030E0CC
:102F1000009709F05CC059C0813019F584E396E050
:102F200061E070E04BE150E09BDE009709F44DC09A
:102F300080E098ECAFE2B8E480934F06909350069F
:102F4000A0935106B09352068DEC9CECACE4BDE32B
:102F50008093530690935406A0935506B09356065B
:102F600030C08250823088F584E396E061E070E002
:102F700043E250E075DE009741F1123061F48DECD0
:102F80009CECACE4BDE38093530690935406A0936D
:102F90005506B093560660914F0670915006809189
:102FA00051069091520620E030E041E655E40E943F
:102FB000A82D60934F06709350068093510690930E
:102FC00052068BDF21E030E002C020E030E0C90192
:102FD0001F910895EF92FF920F931F93CF93DF936A
:102FE000EC017A018B018530910509F454C08630DB
:102FF000910554F48330910579F1843091050CF0FA
:1030000041C097FF12C084C08730910509F455C0B4
:10301000873091050CF448C08830910509F456C0FA
:103020008930910509F074C068C0CB01BA0120E075
:1030300030E0A9010E94D32A18161CF08FE692E016
:103040006DC0CC0FDD1FCC0FDD1FCC5CD94FE882EB
:10305000F9820A831B835FC0CB01BA0120E030E014
:1030600040E450E40E94D32A87FF03C088E492E042
:1030700055C0C801B7010E940B2E0E94472B6093D8
:10308000410649C04093420650934306609344066C
:103090007093450640C040934606509347066093A0
:1030A00048067093490637C040934B0650934C0630
:1030B00060934D0670934E062EC0CB01BA010E945C
:1030C000762E0E94472B60934A0625C0CB01BA0199
:1030D00020E030E040E752E40E94A82D20E030E0FC
:1030E00040E752E40E94A82D60934F06709350066B
:1030F00080935106909352060EC0E89417F9E0921F
:103100005306F0925406009355061093560603C0DA
:1031100084E392E003C0E1DE8FE192E00E9491221D
:10312000DF91CF911F910F91FF90EF900895EF9253
:10313000FF920F931F93DF93CF93CDB7DEB72997FD
:103140000FB6F894DEBF0FBECDBF8C0181E089833E
:10315000F80180818432E1F58181882311F421DE38
:1031600033C0C8017E010894E11CF11CB701AE0117
:103170004E5F5F4F0E949321009741F18981F801D2
:10318000E80FF11D90818F5F89839D3309F5C80198
:10319000B701AE014A5F5F4F0E9493210097B1F0E3
:1031A0008981F801E80FF11D8081882389F46A8103
:1031B0007B818C819D810E94422BDC01CB014E8161
:1031C0005F816885798506DF80E003C081E001C00A
:1031D00083E029960FB6F894DEBF0FBECDBFCF9126
:1031E000DF911F910F91FF90EF90089581DE00977E
:1031F00039F484EE91E00E94912278DD6EDED1CD2B
:1032000008958F5F823109F480E008956F927F9274
:103210008F929F92AF92BF92CF92DF92EF92FF92E6
:103220000F931F935B016C01CA01B9010E94A82D85
:103230003B014C01C601B501A60195010E94A82DD4
:103240009B01AC01C401B3010E94F9295B016C012F
:10325000C801B701A80197010E94FA299B01AC019E
:10326000C601B5010E94DA2A1F910F91FF90EF90DD
:10327000DF90CF90BF90AF909F908F907F906F9096
:1032800008956F927F928F929F92AF92BF92CF924A
:10329000DF92EF92FF920F931F935B016C01CA01C3
:1032A000B9010E94A82D3B014C01C601B501A60140
:1032B00095010E94FA29A80197010E94A82D9B015F
:1032C000AC01C401B3010E94F9290E94352E1F915F
:1032D0000F91FF90EF90DF90CF90BF90AF909F90B5
:1032E0008F907F906F9008952F923F924F925F92B0
:1032F0006F927F928F929F92AF92BF92CF92DF9206
:10330000EF92FF920F931F93DF93CF93CDB7DEB76A
:103310002E970FB6F894DEBF0FBECDBF9E878D8768
:103320005A016B0178018901DC01D7966D917D917D
:103330008D919C91DA970E94732B3B014C01A60161
:1033400095010E94A82D0E94C02A0E94472B5B0174
:103350006C01ED85FE8563A374A385A396A3C401C8
:10336000B301A80197010E94A82D0E94C02A0E94C3
:10337000472B69837A838B839C83AD85BE85979623
:103380006D937D938D939C939A979B966D917D9170
:103390008D919C919E9722E330E040E050E00E94A6
:1033A000992E0E94752B20E030E040E752E40E9405
:1033B000A82D0E94422B1B012C01C601B5010E94C1
:1033C000732B69877A878B879C87C201B1010E9422
:1033D000752B6D837E838F83988769857A858B852E
:1033E0009C85A4019301ED80FE800F8118850EDF7E
:1033F0000E94C02A0E94422BA62EB72EC82ED92E7C
:1034000069817A818B819C810E94732B69837A8385
:103410008B839C8366277727CB0162197309840904
:1034200095090E94752B7B018C01C401B301298190
:103430003A814B815C81EADE0E94B02BED85FE85EE
:10344000658476848784908884017301EA18FB0878
:103450000C091D090E94422BE61AF70A080B190BEA
:1034600017FF5DC06D817E818F8198859B01AC01C6
:103470000E94FA297B018C01C401B3010E94752BC3
:103480009B01AC01C801B7010E94A82D7B018C01F2
:1034900069857A858B859C859B01AC010E94A82D4E
:1034A0009B01AC01C801B7010E94F9297B018C0185
:1034B00069817A818B819C819B01AC010E94A82D3E
:1034C0009B01AC01C801B7010E94FA297B018C0164
:1034D0006D817E818F81988520E030E040E850E466
:1034E0000E94A82D9B01AC01C801B7010E94DA2AF5
:1034F0000E94C02A0E94422BA62EB72EC82ED92E7B
:10350000D7FE03C0AA24BB2465016A147B048C0483
:103510009D0414F464015301EE24FF248701AD855A
:10352000BE859F96AD92BD92CD92DC92D297EA0C69
:10353000FB1C0C1D1D1DFD01E3AAF4AA05AB16AB77
:103540002E960FB6F894DEBF0FBECDBFCF91DF91A0
:103550001F910F91FF90EF90DF90CF90BF90AF90B1
:103560009F908F907F906F905F904F903F902F90A3
:1035700008954F925F926F927F928F929F92AF9237
:10358000BF92CF92DF92EF92FF920F931F93CF9350
:10359000DF93EC016B01009709F456C08AA18823E0
:1035A00009F052C04D885E886F88788CFB01B58821
:1035B000A6889788808CC301B201D501F4012B2F16
:1035C0003A2F4F2F5E2F0E94D32A87FF3DC0609174
:1035D0004F06709150068091510690915206905876
:1035E000ED8CFE8C0F8D18A1A30192014ADE8B0198
:1035F0007C01A5019401652F742F832F922F202F1A
:10360000312F4E2D5F2D0E94D32A87FF04C00B2D32
:103610001A2DE92CF82CA5019401652F7A2D832F02
:10362000982D202F312F4E2D5F2D0E94D32A8823D5
:1036300059F0802F912FAE2DBF2DF601858B968BE3
:10364000A78BB08F81E081A3DF91CF911F910F9164
:10365000FF90EF90DF90CF90BF90AF909F908F90B2
:103660007F906F905F904F9008952F923F924F926E
:103670005F926F927F928F929F92AF92BF92CF9202
:10368000DF92EF92FF920F931F93CF93DF93D0902F
:10369000EC0500E010E0C0E0D0E076C0DD2011F4E1
:1036A00032E1D32EDA948D2D90E02BE330E0829F2F
:1036B0001001839F300C929F300C112486EC91E016
:1036C000280E391E209709F45DC00115110509F473
:1036D00059C0898CBA8CAB8C9C8C6D897E898F8902
:1036E000988D282D3B2D4A2D592D0E94D32A8823B1
:1036F00009F448C08AA18823B9F5F801458856889D
:103700006788708C682D7B2D8A2D992DA3019201DD
:103710000E94D62C181644F560914F067091500601
:1037200080915106909152069058ED8CFE8C0F8D31
:1037300018A1A3019201A5DD062FF72EE82EC92EB0
:10374000682D7B2D8A2D992D202F3F2D4E2D5C2D00
:103750000E94D32A87FF03C0082D7501C92C502F62
:103760004F2D3E2D2C2D04C0582D4B2D3A2D292D9B
:10377000852F942FA32FB22F8D8B9E8BAF8BB88F5D
:10378000F1E0F9A38E01E1018091C501D81609F09D
:1037900085CFD090C501C0E0D0E080E090E02BE381
:1037A000E22EF12C12C02D2D30E02E9D80012F9D98
:1037B000100D3E9D100D11240A531E4FBE01D9DE7F
:1037C0008D2D1FDDD82ECE01E8012091EC05D216FB
:1037D00051F7BE01CEDEF090C501C0E0D0E08BE332
:1037E000682E712C40C00F2D10E0069D6001079DD2
:1037F000D00C169DD00C112426EC31E0C20ED31E45
:10380000209769F189A1882321F4F60181A18823F9
:1038100031F189889A88AB88BC886D897E898F89C7
:10382000988DA50194010E94DA2A1B012C01069DA6
:10383000F001079DF00D169DF00D1124EA53FE4F87
:10384000658976898789908DA50194010E94DA2A7D
:103850008B019C01CE01B201A10146DD19A28F2D81
:10386000D0DCF82EE6018091EC05F81609F0BBCF0C
:10387000E988FA880B891C896D897E898F89988DE2
:10388000A80197010E94DA2A5B016C0160E070E0F8
:10389000CB01A80197010E94DA2A8B019C01CE017D
:1038A000B601A50121DD19A2DF91CF911F910F91E2
:1038B000FF90EF90DF90CF90BF90AF909F908F9050
:1038C0007F906F905F904F903F902F9008958091E0
:1038D000EC058093C5018091EC0593DC809309068B
:1038E0000895F5DF8CE1EDEEF5E0DF011D928A959C
:1038F000E9F708959091EC058091C501981729F09A
:103900008091C5017EDC8093C50108959091EC05FE
:103910008091C501981779F04091C50150E08BE383
:1039200090E0489F9001499F300D589F300D112421
:103930002A533E4F02C020E030E0C9010895209193
:10394000C50181E090910906291380E0089506C021
:103950000E94F91080910A06882339F4D7DF009776
:10396000B9F780913206882399F708952F923F92F4
:103970004F925F926F927F928F929F92AF92BF927F
:10398000CF92DF92EF92FF920F931F93DF93CF932B
:10399000CDB7DEB7AB970FB6F894DEBF0FBECDBF85
:1039A00029013A01AEA2BFA2C8A6D9A68BA6209132
:1039B000EC05422F50E05A83498320913406309120
:1039C000350640913606509137062B8F3C8F4D8F30
:1039D0005E8F0E94A82D0E94782D6F87788B898B2F
:1039E0009A8B8091380690913906A0913A06B09151
:1039F0003B068B839C83AD83BE83C301B2012B81C5
:103A00003C814D815E810E94A82D0E94782D6B8B98
:103A10007C8B8D8B9E8B20913C0630913D06409196
:103A20003E0650913F062F83388749875A87C80141
:103A3000B7010E94A82D0E94782D6F8B788F898FF7
:103A40009A8F8BE390E049815A81489FF001499F0A
:103A5000F00D589FF00D1124EA53FE4F1082809113
:103A6000ED059091EE05A091EF05B091F005EF8482
:103A7000F88809891A89E816F9060A071B0714F459
:103A800020E820832091F1053091F2054091F30563
:103A90005091F405EB88FC880D891E89E216F30627
:103AA0000407150784F46BE370E009811A81069F0F
:103AB000F001079FF00D169FF00D1124EA53FE4F01
:103AC000608160626083A090F505B090F605C090BB
:103AD000F705D090F805EF84F88809891A89E81A63
:103AE000F90A0A0B1B0BC801B701ABE3B0E009816F
:103AF0001A810A9FF0010B9FF00D1A9FF00D1124FF
:103B0000EA53FE4F7B018C0197FF07C0EE24FF2490
:103B10008701E61AF70A080B190BE182F282038388
:103B200014834B885C886D887E88421A530A640A25
:103B3000750A2BE330E049815A81429FF001439F8F
:103B4000F00D529FF00D1124EA53FE4FA301920194
:103B500077FE07C022273327A90124193509460912
:103B600057092583368347835087EF88F88C098D62
:103B70001A8DEA18FB080C091D09EB86FC860D87D7
:103B80001E87A801970117FF07C0509540953095F3
:103B900021953F4F4F4F5F4FABE3B0E009811A8152
:103BA0000A9FF0010B9FF00D1A9FF00D1124EA53AC
:103BB000FE4F218732874387548785809680A78070
:103BC000B084C180D280E380F480C814D904EA04B0
:103BD000FB0410F475016401C216D306E406F50671
:103BE00010F469017A012BE330E049815A81429F48
:103BF0005001439FB00C529FB00C1124A6ECB1E0D1
:103C0000AA0EBB1EF501C586D686E786F08AC114CA
:103C1000D104E104F10409F4F8C20E94752B2B8D44
:103C20003C8D4D8D5E8D0E94DA2A6F8F78A389A31B
:103C30009AA3C301B2010E94752B2B813C814D8157
:103C40005E810E94DA2A262E7B838BA39CA36B8540
:103C50007C858D859E850E94752B2F8138854985B1
:103C60005A850E94DA2A362E7F838DA39AA75F8D0C
:103C700048A139A12AA1652F742F832F922FDA0131
:103C8000F9012B2F3A2F4F2F5E2F0E94A82D7B0179
:103C90008C014B813BA12CA1622D742F832F922F7D
:103CA000F901222D342F4F2F5E2F0E94A82D9B014A
:103CB000AC01C801B7010E94FA297B018C014F8138
:103CC0003DA12AA5632D742F832F922FF901232D57
:103CD000342F4F2F5E2F0E94A82D9B01AC01C801ED
:103CE000B7010E94FA290E94352E3B014C01D501F3
:103CF0005D966D937D938D939C93909760E070E0BB
:103D000080E89FE3A40193010E94DA2AB62EF72EE1
:103D1000A82E492EBBA5BB2359F46EA17FA188A56F
:103D200099A52B2D3F2D4A2D542D0E94A82D0AC058
:103D300060E070E080E89FE32EA13FA148A559A56F
:103D40000E94DA2AE62E572E6C018BE390E0E9817F
:103D5000FA81E89F8001E99F100DF89F100D112452
:103D60000A531E4F98012F5E3F4F3C8F2B8FC4018B
:103D7000B3012E2D352D4C2D5D2D0E94A82DD8017F
:103D800051966D937D938D939C9354971D966D9151
:103D90007D918D919C9150970E94752B2E2D352DE4
:103DA0004C2D5D2D0E94A82D0E94C02A0E94472BF9
:103DB000F80167AB70AF81AF92AF20914F063091A1
:103DC000500640915106509152062B873C874D87F3
:103DD0005E8765857685878590890E94752B2B2D5A
:103DE0003F2D4A2D542D0E94A82D2B853C854D85B5
:103DF0005E850E94A82D20E030E84BE355E40E9448
:103E0000DA2A0E94C02A0E94422BD8019B966D9309
:103E10007D938D939C939E975F8D48A139A12AA194
:103E2000652F742F832F922F2B2D3F2D4A2D542D2C
:103E30000E94A82D6F8F78A389A39AA34B813BA1E1
:103E40002CA1622D742F832F922F2B2D3F2D4A2DC5
:103E5000542D0E94A82D6B837BA38CA39EA34F811E
:103E60003DA12AA5632D742F832F922F2B2D3F2D3B
:103E70004A2D542D0E94A82D362E272E8F839DA3C8
:103E80009091EC058091C501981709F4DDC0509020
:103E90000506409006069090070670900806A2015D
:103EA000652F742F892D972D20E030E0A9010E9405
:103EB000D62C18160CF0C8C06091F9057091FA055F
:103EC0008091FB059091FC059058BF8DA8A1F9A1A8
:103ED000EAA12B2F3A2F4F2F5E2F0E94A82D6B01A6
:103EE0007C015B814BA13CA12EA1652F742F832FF8
:103EF000922F2091FD053091FE054091FF055091D4
:103F000000060E94A82D9B01AC01C701B6010E94CA
:103F1000F9296B017C01A1013F812DA1652F742F2F
:103F2000832F922F209101063091020640910306C3
:103F3000509104060E94A82D9B01AC01C701B60157
:103F40000E94F929E62E872E682EF92E23E333E30B
:103F500043E75FE30E94D32A87FF76C0F801D18848
:103F6000AB8DBC8D1196CC9011971296BC90129788
:103F70001396AC90A201652F742F892D972DD60131
:103F8000F5012B2F3A2F4F2F5E2F0E94D32A87FF48
:103F900003C06201B92CA72C6E2D782D862D9F2D84
:103FA00023E333E343E75FEB0E94D62C18160CF0B3
:103FB00054C060E070E080E89FE32E2D382D462D40
:103FC0005F2D0E94F92920E030E040E05FE30E948D
:103FD000A82D0E94352E7B018C016B857C858D85FB
:103FE0009E8520915306309154064091550650917C
:103FF00056060E94A82DA80197010E94A82D3B01FA
:104000004C0160E070E080E89FE3A80197010E9406
:10401000F9299B01AC01C401B3010E94DA2A0E9474
:10402000352E062FF72EE82E892EA6019501652F35
:104030007C2D832F9A2D202F3F2D4E2D582D0E9401
:10404000D32A87FD0AC005C0DD24CC24BB24AA24C2
:1040500004C0D02ECF2CBE2CA82C8BE390E0E9809E
:10406000FA80E89EF001E99EF00DF89EF00D112413
:10407000EA53FE4FA6019501852F9C2DA32FBA2D43
:10408000818F928FA38FB48F6B857C858D859E8564
:104090009058E58CF68C078D10A120E030E0A90146
:1040A000F0D8E62E872E682EF92EA6019501652FF1
:1040B0007C2D832F9A2D2E2D382D462D5F2D0E947D
:1040C000D32A87FD04C0DE2CC82CB62CAF2C8BE382
:1040D00090E029813A81289F8001299F100D389F07
:1040E000100D11240A531E4FA6019501852F9C2DFA
:1040F000A32FBA2DF801858B968BA78BB08F618982
:104100007289838994892E2D382D462D5F2D0E942A
:10411000D32A181634F081E0D80192968C939297A6
:1041200002C0F80112A28BE390E0E980FA80E89ED9
:10413000F001E99EF00DF89EF00D1124EA53FE4FB8
:1041400081E081A35F8D48A139A12AA1852F942FF9
:10415000A32FB22F8093F9059093FA05A093FB0546
:10416000B093FC055B814BA13CA12EA1852F942F20
:10417000A32FB22F8093FD059093FE05A093FF051A
:10418000B0930006A1013F812DA1852F922DA32F71
:10419000B22F8093010690930206A0930306B0937A
:1041A000040681899289A389B48980930506909336
:1041B0000606A0930706B09308068091090680932F
:1041C000EC058091EC051DD880930906EDEEF5E035
:1041D0000F85188929893A890093ED051093EE051A
:1041E0002093EF053093F0052B893C894D895E893A
:1041F00024833583468357838F89988DA98DBA8D03
:1042000080879187A287B38730DAAB960FB6F89490
:10421000DEBF0FBECDBFCF91DF911F910F91FF90F9
:10422000EF90DF90CF90BF90AF909F908F907F9056
:104230006F905F904F903F902F900895EF92FF9274
:104240000F931F936093ED057093EE058093EF0538
:104250009093F0052093F1053093F2054093F30518
:104260005093F405E092F505F092F6050093F705FA
:104270001093F8051F910F91FF90EF900895AF9262
:10428000BF92CF92DF92EF92FF920F931F93CF9343
:10429000DF937B018C012091C50130E08BE390E03E
:1042A000289FE001299FD00D389FD00D1124CA53BB
:1042B000DE4FC801B7010E94752B2D8D3E8D4F8DAD
:1042C00058A10E94A82D5B016C016D857E858F85AC
:1042D00098890E94752B9B01AC01C601B5010E9413
:1042E000DA2A6D8F7E8F8F8F98A3ED86FE860F87DB
:1042F000188B80E090E0DC018D8B9E8BAF8BB88FAC
:10430000898F9A8FAB8FBC8F1AA281E089A3ADD918
:10431000DF91CF911F910F91FF90EF90DF90CF90A1
:10432000BF90AF900895AF92BF92CF92DF92EF927D
:10433000FF920F931F93DF93CF9300D0CDB7DEB7DB
:104340006C017B015A01FB0180818601080F111D60
:10435000C801BE016F5F7F4F0E94DA2EF5016083B6
:1043600071838283938389819A818017910731F0C9
:104370008C19F701808321E030E002C020E030E0BA
:10438000C9010F900F90CF91DF911F910F91FF9076
:10439000EF90DF90CF90BF90AF90089507C0EFE906
:1043A000FFE03197F1F700C0000001970097B9F7DF
:1043B0000895882311F430EA01C030EE61113061B4
:1043C000222311F090EA392725B190914A069327CC
:1043D000907A2F75922B95B999B1811189B161119C
:1043E00089B1411189B10895EF92FF920F931F9304
:1043F00020E090EAE92E96E8F92E91E0092F112DA0
:10440000D8DF1F910F91FF90EF9008958AB18AB97C
:104410000895EF92FF920F931F9399DA89B180E08C
:1044200060E041E0E1DF81E061E040E0DDDF89B1B3
:1044300080E060E040E021E030E2E32E31EAF32E5C
:1044400037E0032F112DB5DF1F910F91FF90EF90F3
:1044500008958F929F92AF92BF92CF92DF92EF9288
:10446000FF921F93DF93CF93CDB7DEB7A0970FB620
:10447000F894DEBF0FBECDBF6115710581059105B2
:1044800021F480E30E948A0F26C010E04E010894B8
:10449000811C911C2AE0C22ED12CE12CF12C54015C
:1044A000A10EB11CA70196010E94B82EF5016083F0
:1044B0001F5FB901CA01611571058105910579F781
:1044C00008C0FE01E10FF11D8081805D0E948A0F0E
:1044D00011501123B1F7A0960FB6F894DEBF0FBEAE
:1044E000CDBFCF91DF911F91FF90EF90DF90CF90E4
:1044F000BF90AF909F908F900895EF92FF92CF93CF
:10450000DF93E82EE7017E01F92EE70102C00E9449
:104510008A0F89918823D9F7DF91CF91FF90EF908F
:104520000895CF93DF93EC0102C00E948A0FFE0131
:10453000219684918823C9F7DF91CF910895EF9256
:10454000FF920F931F93DF93CF93CDB7DEB72897DA
:104550000FB6F894DEBF0FBECDBFFE0131967F01CE
:104560009E01275F3F4F982F917091938695E21798
:10457000F307C9F78E01075F1F4FF80182918F0182
:10458000805D0E948A0F0E151F05B9F728960FB699
:10459000F894DEBF0FBECDBFCF91DF911F910F9179
:1045A000FF90EF900895EF92FF920F931F937B017E
:1045B0008C0197FF0BC08DE20E948A0F1095009529
:1045C000F094E094E11CF11C011D111DC801B7011C
:1045D00040DF1F910F91FF90EF900895AF92BF922F
:1045E000CF92DF92EF92FF920F931F937B018C018A
:1045F00020E030E0A901D7D787FF07C08DE20E94F5
:104600008A0F17FB109517F91095C801B7012AE01A
:1046100037ED43EA5BE3EED65B016C017B2D9D2D0C
:104620000E94422B7B010027F7FC0095102FC80148
:10463000B7010FDF8EE20E948A0FC801B7010E9406
:10464000752B9B01AC016A2D7B2D8C2D9D2DD1D618
:1046500020E030E040E251E40E94A82DB62EC72EA3
:10466000D82EE92E762F272F3C2D4D2D5E2DCA01F9
:10467000B9010E94422B162F862F805D0E948A0F5F
:10468000612F70E0882777FD8095982F0E94752B09
:104690009B01AC016B2D7C2D8D2D9E2DAAD620E08B
:1046A00030E040E251E40E94A82DECD7862F805DD7
:1046B0000E948A0F1F910F91FF90EF90DF90CF9093
:1046C000BF90AF900895923029F0933041F091302F
:1046D000E9F417C02EE330E0EAE1F4E01BC08130DA
:1046E00041F0813018F0823089F406C0E8E5F4E04A
:1046F00005C0ECE5F4E002C0E6E7F4E0249130E028
:1047000009C022E130E0E8E0F4E004C020E030E05D
:10471000E0E0F0E0DA011196FC93EE93C901089510
:10472000982F2CC0292F2F702093E900981739F06B
:104730007091EC002091ED005091F00003C0242F07
:10474000762F50E021FF19C03091EB003E7F30936F
:10475000EB003091ED003D7F3093ED003091EB00A8
:1047600031603093EB007093EC002093ED00509398
:10477000F0002091EE0027FF08C09F5F973090F275
:104780008F708093E90081E0089580E00895EF92B2
:10479000FF920F931F93CF93DF93162FE82EE7011D
:1047A0007E01F92EE70100E02AC09881992329F1C2
:1047B0006B81E981FA812C81892F8F70873018F500
:1047C0006295660F660F607C991F9927991F692B68
:1047D000223010F096E001C092E028E030E040E0A6
:1047E00003C04F5F220F331F2E173F07D0F34295B0
:1047F000407F492B95DF882331F00F5F2596011705
:10480000A0F281E001C080E0DF91CF911F910F9174
:10481000FF90EF90089580915C0687FF13C004C05D
:1048200080915B068823B9F08091E80082FFF8CF81
:104830008091E8008B778093E800089580915B0673
:10484000882349F08091E80080FFF8CF8091E8004C
:104850008E778093E80008958091E4009091E500C0
:1048600044E62091EC0020FF26C02091E80020FDC6
:1048700016C020915B062223A1F02530A1F02091E3
:10488000EB0025FD12C02091E4003091E5002817CF
:10489000390739F3442359F04150C901E2CF80E090
:1048A000089582E0089583E0089581E0089584E00A
:1048B000089580E008952091E80022FFDACFF9CF33
:1048C0000F931F93CF93DF934BD052D0C8EDD0E01E
:1048D00088818F77888388818068888388818F7DAD
:1048E000888319BC10925B061092570610925906E5
:1048F0001092580600EE10E0F80180818B7F8083D3
:1049000088818160888380E060E042E009DFE1EE39
:10491000F0E080818E7F8083E2EEF0E08081816034
:104920008083808188608083F80180818E7F80838E
:10493000888180618883DF91CF911F910F910895C5
:10494000E8EDF0E080818F7E8083E7EDF0E080810C
:104950008160808384E082BF81E080935A06B0CF7B
:10496000E8EDF0E080818E7F80831092E200089570
:104970001092DA001092E10008951F920F920FB684
:104980000F9211242F933F934F935F936F937F93D5
:104990008F939F93AF93BF93EF93FF938091E10029
:1049A00082FF0AC08091E20082FF06C08091E10090
:1049B0008B7F8093E10014D38091DA0080FF1DC0CB
:1049C0008091D80080FF19C08091DA008E7F80939B
:1049D000DA008091D90080FF0CC080E189BD82E1BE
:1049E00089BD09B400FEFDCF81E080935B06F8D25B
:1049F00004C019BC10925B06F3D28091E10080FFE5
:104A000018C08091E20080FF14C08091E2008E7F88
:104A10008093E2008091E20080618093E2008091C7
:104A2000D80080628093D80019BC85E080935B0633
:104A3000D7D28091E10084FF2DC08091E20084FFF5
:104A400029C080E189BD82E189BD09B400FEFDCFA6
:104A50008091D8008F7D8093D8008091E1008F7E77
:104A60008093E1008091E2008F7E8093E20080914C
:104A7000E20081608093E20080915706882321F450
:104A80008091E30087FF02C084E001C081E0809351
:104A90005B06A6D28091E10083FF27C08091E200EF
:104AA00083FF23C08091E100877F8093E10082E053
:104AB00080935B06109257068091E1008E7F809371
:104AC000E1008091E2008E7F8093E2008091E2001D
:104AD00080618093E20080E060E042E021DE80912E
:104AE000F00088608093F0007BD2FF91EF91BF913E
:104AF000AF919F918F917F916F915F914F913F9176
:104B00002F910F900FBE0F901F9018951F920F922C
:104B10000FB60F9211241F932F933F934F935F93E0
:104B20006F937F938F939F93AF93BF93EF93FF9375
:104B30001091E9001F708091EC001092E9008091C3
:104B4000F000877F8093F0007894E2D01092E90023
:104B50008091F00088608093F0001093E900FF914D
:104B6000EF91BF91AF919F918F917F916F915F91E5
:104B70004F913F912F911F910F900FBE0F901F905B
:104B80001895482F592FFA0180916206909163067B
:104B90008617970718F4BC0140E03CC06115710509
:104BA000D9F78091E8008E778093E800F5CF809167
:104BB0005B06882309F444C08530F1F18091E80058
:104BC00083FD3CC08091E80082FD30C08091E80008
:104BD00080FF20C09091F3008091F200392F20E0F7
:104BE00090E0822B932B06C041914093F1006150DD
:104BF000704001966115710519F088309105A0F398
:104C000041E08830910509F040E08091E8008E771E
:104C10008093E8006115710551F6442341F606C002
:104C200080915B06882361F0853061F08091E80017
:104C300082FFF6CF80E0089583E0089581E0089533
:104C400082E0089583E00895E82FF92F80916206AD
:104C5000909163068617970718F4BC0140E03EC0A8
:104C600061157105D9F78091E8008E778093E8008F
:104C7000F5CF80915B06882309F446C0853009F49E
:104C80003FC08091E80083FD3DC08091E80082FD37
:104C900031C08091E80080FF21C09091F3008091A5
:104CA000F200392F20E090E0822B932B07C0449133
:104CB0004093F10031966150704001966115710585
:104CC00019F08830910598F341E08830910509F09A
:104CD00040E08091E8008E778093E80061157105CF
:104CE00041F6442331F606C080915B06882361F0CB
:104CF000853061F08091E80082FFF6CF80E0089572
:104D000083E0089581E0089582E0089583E00895A6
:104D10000F931F93DF93CF93CDB7DEB7AC970FB64A
:104D2000F894DEBF0FBECDBFECE5F6E08091F10058
:104D3000819326E0E436F207C9F70E94970F80912D
:104D4000E80083FF34C180915C0620915D06253028
:104D500009F484C0263040F42130A1F1213070F0F4
:104D6000233009F024C12EC0283009F4F1C02930C5
:104D700009F400C1263009F01AC194C0803821F02E
:104D8000823809F014C108C08091580690915906E4
:104D9000992371F082600CC0809160068F708093BF
:104DA000E9009091EB0081E095FF80E01092E9002E
:104DB0009091E800977F9093E8008093F100109223
:104DC000F100D1C0882319F0823009F0F0C090E0E2
:104DD0008F719070009729F08230910509F0E7C03B
:104DE0000BC080915E06813009F0E1C0233009F0EC
:104DF00080E0809359062CC080915E06882341F59F
:104E0000209160062F7009F4D2C02093E9008091B0
:104E1000EB0080FF1DC080915D06833021F48091FE
:104E2000EB00806213C08091EB0080618093EB0007
:104E300081E090E002C0880F991F2A95E2F78093E5
:104E4000EA001092EA008091EB0088608093EB000A
:104E50001092E9008091E800877F88C0882309F0DC
:104E6000A6C010915E061F770FB7F8948091E800F6
:104E7000877F8093E800CFDC8091E80080FFFCCF43
:104E80008091E3008078812B8093E3008068809399
:104E9000E300112311F083E001C082E080935B0600
:104EA0000FBF85C08058823008F081C080915E06B7
:104EB00090915F0623E08C3D920791F583E08C830F
:104EC0008AE28B835FB7F894DE01159680E090E06C
:104ED0004EE061E2E42FF0E060935700E49180FF40
:104EE00003C0E295EF704F5FEF702E2F30E0EA3095
:104EF00018F0295C3F4F02C0205D3F4F2D933D933A
:104F000001968431910531F75FBF8091E800877F7A
:104F10008093E800CE0103966AE270E032DE12C0B0
:104F200060916006AE014F5F5F4FCDDBBC01009723
:104F300009F43DC08091E800877F8093E800898173
:104F40009A8182DE8091E8008B778093E8002FC001
:104F5000803869F58091E800877F8093E800809130
:104F600057068093F1008091E8008E778093E800E7
:104F700052DC1DC08823D9F490915E069230B8F4BB
:104F80008091E800877F8093E8009093570643DC88
:104F900080915706882321F48091E30087FF02C0A7
:104FA00084E001C081E080935B060E94930F8091B2
:104FB000E80083FF0AC08091EB0080628093EB00E1
:104FC0008091E800877F8093E800AC960FB6F89454
:104FD000DEBF0FBECDBFCF91DF911F910F9108951E
:104FE00008951F9380915B068823A9F08091E900C2
:104FF0008F709091EC0090FF02C010E801C010E0AB
:10500000182B1092E9008091E80083FF01C080DE38
:105010001F701093E9001F910895CF93DF93EC0167
:105020008091E80083FFA4C0888190E02091600611
:10503000309161062817390709F09AC080915D0602
:10504000813269F0823220F4803209F091C03CC094
:10505000823209F46BC0833209F08AC07BC0809130
:105060005C06813A09F084C08091E800877F8093D4
:10507000E8008091E80080FFFCCF8C899D89AE8993
:10508000BF898093F100292F3A2F4B2F552720936A
:10509000F1009D01442755272093F1008B2F99277C
:1050A000AA27BB278093F100888D8093F100898D1A
:1050B0008093F1008A8D8093F1008091E8008E77D3
:1050C0008093E800A8DB54C080915C06813209F02F
:1050D0004FC08091E800877F8093E80005C08091F1
:1050E0005B06882309F444C08091E80082FFF7CF73
:1050F0003091F1002091F1009091F1008091F10048
:105100003C8B2D8B9E8B8F8B8091F100888F8091B3
:10511000F100898F8091F1008A8F8091E8008B7770
:105120008093E80078DBCE0163D122C080915C06D9
:105130008132F1F48091E800877F8093E8006BDB97
:1051400080915E0690915F06998B888BCE010E94BC
:105150009B0F0EC080915C06813251F48091E80073
:10516000877F8093E80057DBCE0160915E0640D1D7
:10517000DF91CF910895CF93DF93EC014096FC012E
:105180008BE0DF011D928A95E9F782E08C838987A5
:1051900083E08E87CE01019661E0F9DA882359F029
:1051A000CE01069661E0F3DA882329F0CE010B9652
:1051B00061E0EDDA01C080E0DF91CF910895DF93E7
:1051C000CF930F92CDB7DEB7FC0180915B068430A0
:1051D000F9F4248935894689578921153105410516
:1051E0005105B1F081818F708093E9008091E800D2
:1051F00085FD0AC08091E8008E778093E80069837E
:105200002BDB6981882329F46093F10080E001C0E1
:1052100082E00F90CF91DF910895282FFB018485C4
:105220009585622FCCDF882319F02FEF3FEF02C066
:1052300020E030E0C9010895FC0180915B068430D4
:1052400051F524893589468957892115310541054C
:10525000510509F181818F708093E9009091F300ED
:105260008091F200392F20E090E0822B932B009761
:10527000A1F09091E8008091E8008E778093E8009B
:1052800095FD0DC0E9DA882359F49091E8009E77E6
:105290009093E800089582E0089580E0089580E00A
:1052A000089520915B06243099F4FC012489358906
:1052B00046895789211531054105510549F021815C
:1052C0002F702093E9002091E80020FF01C0B4CFA7
:1052D0000895FC0180915B06843061F5248935894D
:1052E00046895789211531054105510519F18681F6
:1052F0008F708093E9008091E80082FF1BC090913D
:10530000F3008091F200392F20E090E0822B932B64
:10531000009731F48091E8008B778093E8000AC011
:105320003091F3002091F200932F80E030E0282BA1
:10533000392B02C020E030E0C9010895FC018091C2
:105340005B06843099F5248935894689578921156A
:1053500031054105510551F186818F708093E90037
:105360008091E80082FF22C09091F3008091F200CA
:10537000392F20E090E0822B932B009721F0209191
:10538000F10030E002C02FEF3FEF9091F3008091E9
:10539000F200592F40E090E0842B952B009741F4C8
:1053A0008091E8008B778093E80002C02FEF3FEFF9
:1053B000C9010895FC0184859585C0DF9C0197FF94
:1053C00002C02EEF3FEFC9010895FB012EE0DB0183
:1053D0001D922A95E9F723E023832DE039E23187F6
:1053E00020872AED39E233872287958784870895BD
:1053F00008955058BB27AA270ED076C23FD230F06E
:1054000044D220F031F49F3F11F41EF40FC20EF489
:10541000E095E7FBDCC1E92F89D280F3BA17620778
:1054200073078407950718F071F49EF5B8C20EF45F
:10543000E0950B2EBA2FA02D0B01B90190010C01A4
:10544000CA01A0011124FF27591B99F0593F50F4BC
:10545000503E68F11A16F040A22F232F342F442714
:10546000585FF3CF469537952795A795F04053950C
:10547000C9F77EF41F16BA0B620B730B840BBAF0DC
:105480009150A1F0FF0FBB1F661F771F881FC2F747
:105490000EC0BA0F621F731F841F48F4879577955B
:1054A0006795B795F7959E3F08F0B3CF9395880F12
:1054B00008F09927EE0F979587950895DFD158F05A
:1054C00080E891E009F49EEFE0D128F040E851E057
:1054D00059F45EEF09C0AAC162C2E92FE07826D272
:1054E00068F3092E052AC1F326173707480759071D
:1054F00038F00E2E07F8E02569F0E025E0640AC0D8
:10550000EF6307F8009407FADB01B9019D01DC01A4
:10551000CA01AD01EF935DD0E7D10AD05F91552369
:1055200031F02BED3FE049E450FD49EC63CF0895A5
:10553000DF93DD27B92FBF7740E85FE31616170624
:1055400048075B0710F4D92F96D29F938F937F93D0
:105550006F93C9D3ECEAF0E06CD1C6D12F913F91A3
:105560004F915F9101D3DD2349F09058A2EA2AEDD3
:105570003FE049EC5FE3D0785D274DDFDF91B4C1B8
:10558000F7D180F09F3740F491110EF409C260E02A
:1055900070E080E89FE3089526F01B16611D711DE1
:1055A000811D1BC135C1EFD008F481E0089575D18C
:1055B000E395ABC10CD098C168D140F05FD130F019
:1055C00021F45F3F19F003C15111EAC12FC1AED1DF
:1055D00098F39923C9F35523B1F3951B550BBB27BA
:1055E000AA2762177307840738F09F5F5F4F220F67
:1055F000331F441FAA1FA9F333D00E2E3AF0E0E860
:1056000030D091505040E695001CCAF729D0FE2FAB
:1056100027D0660F771F881FBB1F2617370748073D
:10562000AB07B0E809F0BB0B802DBF01FF279358F3
:105630005F4F2AF09E3F510568F0C9C0B1C15F3F7E
:10564000ECF3983EDCF3869577956795B795F795DB
:105650009F5FC9F7880F911D9695879597F90895D3
:10566000E1E0660F771F881FBB1F6217730784076F
:10567000BA0720F0621B730B840BBA0BEE1F88F77E
:10568000E095089504D06894B1118AC1089556D167
:1056900088F09F5790F0B92F9927B751A0F0D1F01B
:1056A000660F771F881F991F1AF0BA95C9F712C0A5
:1056B000B13081F074D1B1E0089571C1672F782FB6
:1056C0008827B85F39F0B93FCCF386957795679511
:1056D000B395D9F73EF490958095709561957F4F7D
:1056E0008F4F9F4F0895E89409C097FB3EF4909523
:1056F0008095709561957F4F8F4F9F4F9923A9F0AB
:10570000F92F96E9BB279395F69587957795679539
:10571000B795F111F8CFFAF4BB0F11F460FF1BC07D
:105720006F5F7F4F8F4F9F4F16C0882311F096E910
:1057300011C0772321F09EE8872F762F05C06623BE
:1057400071F096E8862F70E060E02AF09A95660F77
:10575000771F881FDAF7880F9695879597F9089530
:1057600007D180F09F3740F491110EF019C160E02D
:1057700070E080E89FEB089526F41B16611D711DF3
:10578000811D2BC045C0990F0008550FAA0BE0E8FA
:10579000FEEF16161706E807F907C0F012161306F3
:1057A000E407F50798F0621B730B840B950B39F433
:1057B0000A2661F0232B242B252B21F408950A2699
:1057C00009F4A140A6958FEF811D811D089597F9D9
:1057D0009F6780E870E060E00895882371F4772384
:1057E00021F09850872B762F07C0662311F4992754
:1057F0000DC09051862B70E060E02AF09A95660FFC
:10580000771F881FDAF7880F9695879597F908957F
:105810009F3F31F0915020F4879577956795B79524
:10582000880F911D9695879597F908959FEF80ECC5
:105830000895DF93CF931F930F93FF92EF92DF9220
:105840007B018C01689405C0DA2EEF018DD1FE0139
:10585000E894A5912591359145915591AEF3EF01CD
:10586000DADDFE019701A801DA9479F7DF90EF9075
:10587000FF900F911F91CF91DF91089500240A941A
:105880001616170618060906089500240A9412161B
:105890001306140605060895C9CF50D0E8F3E8941E
:1058A000E0E0BB279F57F0F02AED3FE049EC06C04F
:1058B000EE0FBB0F661F771F881F28F0B23A6207F2
:1058C0007307840728F0B25A620B730B840BE395BD
:1058D0009A9572F7803830F49A95BB0F661F771F40
:1058E000881FD2F7904896CF092E0394000C11F42C
:1058F000882352F0BB0F40F4BF2B11F460FF04C0AB
:105900006F5F7F4F8F4F9F4F0895EF93E0FF06C06B
:10591000A2EA2AED3FE049EC5FEB7DDDE5DF0F9089
:10592000039401FC9058E9EDF0E0F2C157FD905866
:10593000440F551F59F05F3F71F04795880F97FB53
:10594000991F61F09F3F79F087950895121613060D
:105950001406551FF2CF4695F1DF08C0161617063C
:105960001806991FF1CF8695710561050894089571
:10597000E5DFA0F0BEE7B91788F4BB279F3860F4D5
:105980001616B11D672F782F8827985FF7CF869559
:1059900077956795B11D93959639C8F30895E89466
:1059A000BB2766277727CB0197F90895ECDE08F42B
:1059B0008FEF089563DF19F068DF09F037CF07CF65
:1059C000B901CA0125CF9F775F77B0DF98F399239C
:1059D000B9F35523B9F3FF27951758F4E52FE91BC1
:1059E000ED3070F75E3B10F0F1E41CC09034E0F451
:1059F0000AC0E92FE51BED3028F79E3B10F0F1E4DB
:105A000011C0503488F4F9EA88232AF09A95660F79
:105A1000771F881FDAF744232AF05A95220F331F85
:105A2000441FDAF79F1B5F1BFF931F930F93FF9297
:105A3000EF9279018A01BB27AB2F9B01AC0196D075
:105A40009701A801BF937B018C01AA27BA2FB90146
:105A5000CA018CD0AF919701A801EF90FF900F91F0
:105A60001F91D9DC41DF01D14F9140FF08955527A7
:105A700047FD509509C09B01AC0160E070E080E8F3
:105A80009FE398CDA4CEC4CE59DFE8F39923D9F390
:105A9000940F511DBBF39150504094F059F088235E
:105AA00032F0660F771F881F91505040C1F79E3F1C
:105AB000510544F7880F911D9695879597F908959C
:105AC0005F3FACF0983E9CF0BB2786957795679535
:105AD000B79508F4B1609395C1F7BB0F58F711F46F
